:100000000C945D000C9485000C9485000C94850084
:100010000C9485000C9485000C9485000C9485004C
:100020000C9485000C9485000C9485000C9485003C
:100030000C9485000C9485000C9485000C9485002C
:100040000C9427020C9485000C9497020C94710276
:100050000C9485000C9485000C9485000C9485000C
:100060000C9485000C94850000000008000201003B
:100070000003040700000000000000000000000072
:10008000250028002B0000000000240027002A0083
:10009000040404040404040402020202020203032E
:1000A0000303030301020408102040800102040836
:1000B0001020010204081020FE0311241FBECFEF00
:1000C000D8E0DEBFCDBF12E0A0E0B1E0E0E7F8E0AD
:1000D00002C005900D92AA36B107D9F723E0AAE62F
:1000E000B2E001C01D92A231B207E1F710E0CDE508
:1000F000D0E004C02197FE010E942B04CC35D1072B
:10010000C9F70E94C9020C9436040C94000090E0D8
:10011000FC01EC55FF4F2491FC01E057FF4F849107
:10012000882399F090E0880F991FFC01EA57FF4F50
:10013000A591B491FC01E458FF4F859194918FB73C
:10014000F894EC91E22BEC938FBF089590E0FC01C2
:10015000E859FF4F2491FC01EC55FF4F3491FC010D
:10016000E057FF4FE491EE2309F43CC0222339F11C
:10017000233091F038F42130A9F0223001F584B514
:100180008F7D12C0273091F02830A1F02430B9F4CF
:10019000809180008F7D03C0809180008F77809355
:1001A00080000DC084B58F7784BD09C08091B000F8
:1001B0008F7703C08091B0008F7D8093B000F0E016
:1001C000EE0FFF1FE458FF4FA591B4919FB7F8942D
:1001D000611104C08C913095382302C0EC913E2B04
:1001E0003C939FBF0895CF92DF92EF92FF920F93BF
:1001F0001F93CF93DF936C017A018B01C0E0D0E0B5
:10020000CE15DF0581F0D8016D918D01D601ED91FC
:10021000FC910190F081E02DC6010995892B11F028
:100220002196EECF7E01C701DF91CF911F910F91F3
:10023000FF90EF90DF90CF900895089580E090E0D8
:100240000895FC01538D448D252F30E0842F90E0DC
:10025000821B930B541710F0CF96089501970895C1
:10026000FC01918D828D981761F0828DDF01A80FBE
:10027000B11D5D968C91928D9F5F9F73928F90E0E0
:1002800008958FEF9FEF0895FC01918D828D98174F
:1002900031F0828DE80FF11D858D90E008958FEF8C
:1002A0009FEF0895FC01918D228D892F90E0805C55
:1002B0009F4F821B91098F739927089585E792E0DC
:1002C0000E94520121E0892B09F420E0822F089539
:1002D000FC01848DDF01A80FB11DA35ABF4F2C91E3
:1002E000848D90E001968F739927848FA689B789B2
:1002F0002C93A089B1898C91837080648C93938DA9
:10030000848D981306C00288F389E02D80818F7D4B
:1003100080830895EF92FF920F931F93CF93DF9303
:10032000EC0181E0888F9B8D8C8D981305C0E88946
:10033000F989808185FD26C0F62E0B8D10E00F5FB8
:100340001F4F0F731127E02E8C8DE8120CC00FB6D3
:1003500007FCFACFE889F989808185FFF5CFCE01C6
:100360000E946801F1CF8B8DFE01E80FF11DE35A69
:10037000FF4FF0829FB7F8940B8FEA89FB89808149
:1003800080620AC09FB7F894EE89FF896083E8898C
:10039000F98980818370806480839FBF81E090E0D1
:1003A000DF91CF911F910F91FF90EF900895CF9320
:1003B000DF93EC01888D8823C9F0EA89FB8980816D
:1003C00085FD05C0A889B9898C9186FD0FC00FB63F
:1003D00007FCF5CF808185FFF2CFA889B9898C9180
:1003E00085FFEDCFCE010E946801E7CFDF91CF916D
:1003F000089580E090E0892B29F00E945E01811130
:100400000C9400000895009769F0FC010190002011
:10041000E9F73197AF01481B590BBC0185E792E022
:100420000C94F30080E090E0089582E191E00C9458
:100430000302CF93DF930E940302EC010E94150296
:100440008C0F9D1FDF91CF9108950E9431041F9260
:100450000F920FB60F9211242F933F938F939F9378
:10046000AF93BF938091710290917202A091730239
:10047000B09174023091700223E0230F2D3720F4E5
:100480000196A11DB11D05C026E8230F0296A11DEE
:10049000B11D209370028093710290937202A09319
:1004A0007302B093740280916C0290916D02A091DE
:1004B0006E02B0916F020196A11DB11D80936C0276
:1004C00090936D02A0936E02B0936F02BF91AF91B3
:1004D0009F918F913F912F910F900FBE0F901F9082
:1004E00018951F920F920FB60F9211242F933F93DE
:1004F0004F935F936F937F938F939F93AF93BF932C
:10050000EF93FF9385E792E00E946801FF91EF91DE
:10051000BF91AF919F918F917F916F915F914F911B
:100520003F912F910F900FBE0F901F9018951F9223
:100530000F920FB60F9211242F938F939F93EF93E7
:10054000FF93E0918502F09186028081E0918B0219
:10055000F0918C0282FD12C0908180918E028F5F9B
:100560008F7320918F02821751F0E0918E02F0E09C
:10057000EB58FD4F958F80938E0201C08081FF91D3
:10058000EF919F918F912F910F900FBE0F901F9021
:100590001895789484B5826084BD84B5816084BDEB
:1005A00085B5826085BD85B5816085BD80916E0011
:1005B000816080936E001092810080918100826042
:1005C000809381008091810081608093810080917F
:1005D00080008160809380008091B100846080936E
:1005E000B1008091B00081608093B00080917A006A
:1005F000846080937A0080917A00826080937A0090
:1006000080917A00816080937A0080917A0080687E
:1006100080937A001092C100E0918502F0918602E9
:1006200082E08083E0918102F09182021082E09169
:100630008302F09184028FEC808310928D02E0910E
:100640008902F0918A0286E08083E0918702F0912E
:100650008802808180618083E0918702F091880226
:10066000808188608083E0918702F0918802808198
:1006700080688083E0918702F091880280818F7D7D
:10068000808387E00E94870086E00E94870085E0E3
:100690000E94870084E00E94870061E087E00E945A
:1006A000A60061E086E00E94A60061E085E00E946D
:1006B000A60061E084E00E94A60085E191E00E942E
:1006C00003020E9415028CE391E00E9419020E942D
:1006D00015020E9415020E94150201E010E085E754
:1006E00092E00E945201892B09F485C085E792E0CF
:1006F0000E943001C82F682F85E792E00E948A018E
:1007000081E591E00E940302C13379F410936B02FA
:1007100000936A0260E086E00E94A60061E087E044
:100720000E94A60088E691E054C0C23379F4109389
:100730006B0200936A0260E087E00E94A60061E01D
:1007400086E00E94A60081E991E043C0C33379F4BA
:1007500010936B0200936A0260E087E00E94A6009B
:1007600060E086E00E94A60083EC91E032C0C433D2
:1007700079F410936B0200936A0260E085E00E94B6
:10078000A60061E084E00E94A6008AED91E021C00D
:10079000C53379F410936B0200936A0260E084E041
:1007A0000E94A60061E085E00E94A60081E092E040
:1007B00010C0C63381F410936B0200936A0260E0AC
:1007C00085E00E94A60060E084E00E94A60081E32C
:1007D00092E00E94190280916A0290916B02892B2B
:1007E00021F486E492E00E9419020E941502109200
:1007F0006B0210926A020E94F90171CFE5E7F2E004
:100800001382128288EE93E0A0E0B0E084839583A7
:10081000A683B78384E091E09183808385EC90E0A8
:100820009587848784EC90E09787868780EC90E0BA
:10083000918B808B81EC90E0938B828B82EC90E0AB
:10084000958B848B86EC90E0978B868B118E128E25
:10085000138E148E0895EE0FFF1F0590F491E02D76
:10086000099481E090E0F8940C943604F894FFCF5A
:10087000000000008A01F3002101D701520130017C
:1008800044010D0A0053696D756C617369205065F0
:100890006E67656E64616C69204D6F746F72204481
:1008A000432064676E20584265653A0042726F616A
:1008B0006462616E64204D756C74696D6564696114
:1008C000002020202020203D3D3D3D3D3D3D3D2060
:1008D0003E202020202020004D6F746F7220506534
:1008E0007274616D612062657270757461722073DB
:1008F0006561726168206A6172756D206A616D2E32
:10090000004D6F746F722050657274616D6120626A
:1009100065727075746172206265726C6177616E68
:10092000616E2061726168206A6172756D206A6112
:100930006D2E004D6F746F722050657274616D6121
:100940002042455248454E5449004D6F746F722005
:100950004B65647561206265727075746172207395
:100960006561726168206A6172756D206A616D2EC1
:10097000004D6F746F72204B656475612062657203
:100980007075746172206265726C6177616E616E00
:100990002061726168206A6172756D206A616D2ED6
:1009A000004D6F746F72204B656475612042455233
:1009B00048454E544900506572696E746168205311
:1009C000616C61682E2053696C616B616E20756C7F
:0A09D000616E6769202121212000DB
:00000001FF
