:100000000C9462000C948A000C948A000C948A0070
:100010000C948A000C948A000C948A000C948A0038
:100020000C948A000C948A000C948A000C948A0028
:100030000C948A000C948A000C948A000C948A0018
:100040000C940C030C948A000C947C030C945603BF
:100050000C948A000C948A000C948A000C948A00F8
:100060000C948A000C948A000000000024002700F1
:100070002A0000000000250028002B0000000000DE
:1000800023002600290004040404040404040202DA
:100090000202020203030303030301020408102007
:1000A0004080010204081020010204081020000012
:1000B0000008000201000003040700000000000027
:1000C0000000AE0311241FBECFEFD8E0DEBFCDBFCE
:1000D00011E0A0E0B1E0E8E9FCE002C005900D927B
:1000E000A034B107D9F722E0A0E4B1E001C01D922D
:1000F000A735B207E1F710E0C2E6D0E004C02197CF
:10010000FE010E943F06C136D107C9F70E943B0499
:100110000C944A060C94000096E0899FD0011124AB
:10012000A851BE4F90967C936E935F9791E0919605
:100130009C93919790915402E0915502F091560250
:10014000992339F0309751F0811108C08091040251
:1001500004C0309719F05C968C9109940895CF9261
:10016000DF92EF92FF920F931F9396E0899FF00129
:100170001124E851FE4F11A2278D30A12130310505
:1001800039F158F02230310509F447C023303105E8
:1001900009F04FC060E070E044C0662309F449C034
:1001A00061E070E00E948C002FB7F89480914701C5
:1001B00090914801A0914901B0914A012FBF8093CD
:1001C000400290934102A0934202B093430231C097
:1001D0009FB7F894C0904701D0904801E090490142
:1001E000F0904A019FBF009140021091410220917E
:1001F000420230914302C01AD10AE20AF30A009186
:1002000052021091530220E030E00C151D052E051E
:100210003F0518F462E070E004C061110AC063E0B9
:1002200070E01F910F91FF90EF90DF90CF900C94B2
:100230008C001F910F91FF90EF90DF90CF90089569
:10024000833081F028F4813099F08230A1F0089554
:100250008730A9F08830B9F08430D1F480918000E3
:100260008F7D03C0809180008F77809380000895F8
:1002700084B58F7702C084B58F7D84BD0895809149
:10028000B0008F7703C08091B0008F7D8093B00065
:100290000895CF93DF93282F30E0F901E255FF4F07
:1002A0008491F901E656FF4FD491F901EA57FF4FC7
:1002B000C491CC2391F081110E942001EC2FF0E039
:1002C000EE0FFF1FE458FF4FA591B491EC91ED2381
:1002D00081E090E021F480E002C080E090E0DF91D6
:1002E000CF9108951F93CF93DF93282F30E0F9012A
:1002F000E255FF4F8491F901E656FF4FD491F90181
:10030000EA57FF4FC491CC23C1F0162F81110E94F0
:100310002001EC2FF0E0EE0FFF1FEE58FF4FA591EC
:10032000B4919FB7F894111104C08C91D095D82343
:1003300002C0EC91DE2BDC939FBFDF91CF911F9128
:100340000895CF93DF9390E0FC01E656FF4F249190
:10035000FC01EA57FF4F8491882361F190E0880FF8
:10036000991FFC01E859FF4FC591D491FC01EE584B
:10037000FF4FA591B491611109C09FB7F89488818E
:10038000209582238883EC912E230BC0623061F488
:100390009FB7F8948881322F309583238883EC911E
:1003A0002E2B2C939FBF06C08FB7F894E8812E2B7D
:1003B00028838FBFDF91CF910895862F642F0C94EF
:1003C000A101862F642F0C947201862F0C94490191
:1003D000CF92DF92EF92FF920F931F93CF93DF9311
:1003E0006C017A018B01C0E0D0E0CE15DF0581F011
:1003F000D8016D918D01D601ED91FC910190F081B4
:10040000E02DC6010995892B11F02196EECF7E01D2
:10041000C701DF91CF911F910F91FF90EF90DF9077
:10042000CF900895089580E090E00895FC01538DE9
:10043000448D252F30E0842F90E0821B930B5417BE
:1004400010F0CF96089501970895FC01918D828D4B
:10045000981761F0828DDF01A80FB11D5D968C9118
:10046000928D9F5F9F73928F90E008958FEF9FEF23
:100470000895FC01918D828D981731F0828DE80FDF
:10048000F11D858D90E008958FEF9FEF0895FC0199
:10049000918D228D892F90E0805C9F4F821B910966
:1004A0008F73992708958BE491E00E94470221E021
:1004B000892B09F420E0822F0895FC01848DDF014F
:1004C000A80FB11DA35ABF4F2C91848D90E00196C7
:1004D0008F739927848FA689B7892C93A089B189B6
:1004E0008C91837080648C93938D848D981306C057
:1004F0000288F389E02D80818F7D80830895EF92BB
:10050000FF920F931F93CF93DF93EC0181E0888FCD
:100510009B8D8C8D981305C0E889F989808185FDB4
:1005200026C0F62E0B8D10E00F5F1F4F0F731127A3
:10053000E02E8C8DE8120CC00FB607FCFACFE889CC
:10054000F989808185FFF5CFCE010E945D02F1CF50
:100550008B8DFE01E80FF11DE35AFF4FF0829FB72C
:10056000F8940B8FEA89FB89808180620AC09FB76B
:10057000F894EE89FF896083E889F9898081837026
:10058000806480839FBF81E090E0DF91CF911F91D5
:100590000F91FF90EF900895CF93DF93EC01888D3A
:1005A0008823C9F0EA89FB89808185FD05C0A88977
:1005B000B9898C9186FD0FC00FB607FCF5CF8081FD
:1005C00085FFF2CFA889B9898C9185FFEDCFCE0147
:1005D0000E945D02E7CFDF91CF91089580E090E027
:1005E000892B29F00E94530281110C940000089578
:1005F000009769F0FC0101900020E9F73197AF0105
:10060000481B590BBC018BE491E00C94E80180E09D
:1006100090E008950E9445061F920F920FB60F9228
:1006200011242F933F938F939F93AF93BF93809108
:10063000470190914801A0914901B0914A01309140
:10064000460123E0230F2D3720F40196A11DB11D93
:1006500005C026E8230F0296A11DB11D2093460177
:100660008093470190934801A0934901B0934A01B8
:100670008091420190914301A0914401B0914501C4
:100680000196A11DB11D8093420190934301A09357
:100690004401B0934501BF91AF919F918F913F91DC
:1006A0002F910F900FBE0F901F9018951F920F92D1
:1006B0000FB60F9211242F933F934F935F936F9335
:1006C0007F938F939F93AF93BF93EF93FF938BE4AD
:1006D00091E00E945D02FF91EF91BF91AF919F91D8
:1006E0008F917F916F915F914F913F912F910F90DB
:1006F0000FBE0F901F9018951F920F920FB60F927A
:1007000011242F938F939F93EF93FF93E0915B01BD
:10071000F0915C018081E0916101F091620182FDC4
:1007200012C09081809164018F5F8F732091650169
:10073000821751F0E0916401F0E0E55BFE4F958F88
:100740008093640101C08081FF91EF919F918F910F
:100750002F910F900FBE0F901F90189510924E0181
:1007600010924D0188EE93E0A0E0B0E080934F013D
:1007700090935001A0935101B09352018CE191E00C
:1007800090934C0180934B0185EC90E0909358013D
:100790008093570184EC90E090935A018093590123
:1007A00080EC90E090935C0180935B0181EC90E0A1
:1007B00090935E0180935D0182EC90E090936001E4
:1007C00080935F0186EC90E09093620180936101D9
:1007D00010926401109265011092660110926701F7
:1007E0001092EA011092EE011092ED011092EF01C9
:1007F0008EE291E09093E9018093E801E8EEF1E068
:10080000148E10A2178E11A2369682E0E432F807F9
:10081000B9F784E091E090934B0280934A0280E024
:1008200091E090934D0280934C0284E080934E02BD
:1008300080934F0288E091E09093490280934802B0
:100840008AE090E0909351028093500284EF91E00F
:1008500090935302809352021092560210925502C6
:1008600010924402109245021092460210924702E2
:10087000109254020895789484B5826084BD84B542
:10088000816084BD85B5826085BD85B5816085BD8B
:1008900080916E00816080936E0010928100809143
:1008A00081008260809381008091810081608093CB
:1008B0008100809180008160809380008091B100F0
:1008C00084608093B1008091B00081608093B0001B
:1008D00080917A00846080937A0080917A008260AF
:1008E00080937A0080917A00816080937A00809171
:1008F0007A00806880937A001092C100E0915B01D9
:10090000F0915C0182E08083E0915701F091580101
:100910001082E0915901F0915A018FEC808310927E
:100920006301E0915F01F091600186E08083E091D6
:100930005D01F0915E01808180618083E0915D01C5
:10094000F0915E01808188608083E0915D01F0918B
:100950005E01808180688083E0915D01F0915E019D
:1009600080818F7D8083812C912C5401839454E26B
:10097000E52E52E0F52ECC24C394D12C21E0209317
:1009800054028FB7F894409147015091480160910B
:10099000490170914A018FBF8091440290914502B4
:1009A000A0914602B0914702481B590B6A0B7B0B82
:1009B0008091500290915102A0E0B0E08417950719
:1009C000A607B70708F0E7C0C0E080914E02C8173D
:1009D00010F0512C40C0E0914A02F0914B02EC0F14
:1009E000F11D62E080810E94A101CF5FEECFC42D96
:1009F000D0E0E0914A02F0914B02EC0FFD1F8081A4
:100A00000E9449012496CC0FDD1FC851DE4F892B6F
:100A100009F04BC088819981822993299983888321
:100A2000439480914E02481610F3E0914C02F091ED
:100A30004D02E00FF11F61E080810E947201809100
:100A40004C0290914D02FC01E00FF11F60E08081AB
:100A50000E94A101539480914F02581658F5052D1C
:100A600010E0E0914C02F0914D02E00FF11F61E0C7
:100A700080810E94A101E0914C02F0914D02E00FB3
:100A8000F11F60E080810E947201D501C401052C34
:100A900004C0880F991FAA1FBB1F0A94D2F71C011C
:100AA0003C0160947094412CBCCF8881998186214F
:100AB0009721B4CFC8EED1E0FE01878D90A1892B9C
:100AC00031F4148E8FEF9FEF968F858F11A236969B
:100AD000EE16FF0691F710E080914E02181770F5A0
:100AE00000E0612E712CC301880F991FFC01E051B9
:100AF000FE4F3F0120914F020217F0F4F301A08155
:100B0000B181002E02C0B695A7950A94E2F76A2F2C
:100B10006170129F90011124200F311DE8EEF1E069
:100B200080E0458D568D2417350709F49EC08F5FF0
:100B300036968A30B1F77BC01F5FCECF80E099A197
:100B4000911181E02696EC16FD06C9F79FB7F8943F
:100B500040914701509148016091490170914A01CB
:100B60009FBF4093440250934502609346027093A6
:100B70004702882381F080910902882361F08091E7
:100B80000702909108028130910529F4C091040276
:100B9000C11104C049C01092540246C0C13339F497
:100BA000909341018093400184E391E02CC0C233D3
:100BB00039F4909341018093400186E391E023C092
:100BC000C33339F4909341018093400188E391E06D
:100BD0001AC0C43339F490934101809340018AE3F1
:100BE00091E011C0C53339F4D0924101C092400167
:100BF0008CE391E008C0C63341F4D0924101C09229
:100C000040018EE391E00E94F802809140019091B2
:100C10004101892B29F46C2F8BE491E00E947F0223
:100C200010924101109240010E94EE02A7CEA0FF57
:100C30001EC0E8EEF1E080E090E0448D411119C063
:100C4000E0914802F0914902E20FF31F7081F6E053
:100C5000F89FA001F99F500D1124FA01E851FE4FB1
:100C6000748F368F258F10A2178E0E94AF000F5FF2
:100C700041CF019636968A309105F9F6F8CFEE0FFE
:100C8000FF1F0590F491E02D099481E090E0F89425
:080C90000C944A06F894FFCF12
:100C9800090807060D0C0B0A3738392F3435367812
:100CA8003132332D2A30232B000000007F02E80167
:100CB8001602CC0247022502390200000000DD01BD
:100CC800E101E5013100320033003400350036001F
:00000001FF
